:020000040800F2
:1000000090070020AD010008F736000819360008F7
:10001000F5360008F52100083D3D0008000000000D
:100020000000000000000000000000004938000847
:100030000522000800000000F93600084B380008CF
:10004000C7010008C7010008C7010008C701000870
:10005000C7010008C701000807220008C7010008FF
:10006000C7010008C7010008C7010008C701000850
:10007000F9210008C7010008C7010008C7010008EE
:10008000C7010008C7010008C7010008C701000830
:10009000C7010008C7010008C7010008C701000820
:1000A000C7010008C7010008C7010008C701000810
:1000B000C7010008C7010008C7010008C701000800
:1000C000C7010008C7010008C7010008C7010008F0
:1000D000C7010008C7010008313D0008C70100083A
:1000E000C7010008C7010008C701000800F002F8B6
:1000F00000F04DF80AA090E8000C82448344AAF175
:100100000107DA4501D100F042F8AFF2090EBAE872
:100110000F0013F0010F18BFFB1A43F0010318473B
:100120001476000034760000103A24BF78C878C1F5
:10013000FAD8520724BF30C830C144BF04680C60ED
:10014000704700000023002400250026103A28BF35
:1001500078C1FBD8520728BF30C148BF0B60704739
:10016000662907F0B580002070471FB500F07CFEBF
:1001700004000020002105F0E3FE401C6060002028
:10018000002105F0C7FEE0601FBD10B510BD01F0F5
:1001900031F91146FFF7E9FF04F0EAFF01F082FBB5
:1001A00003B4FFF7F2FF03BC01F0E8FB0948804706
:1001B00009480047FEE7FEE7FEE7FEE7FEE7FEE749
:1001C000FEE7FEE7FEE7FEE704480549054A064B61
:1001D000704700009F380008ED00000890010020E3
:1001E0009007002090030020900300200FB41CB55E
:1001F000074B06AA7B4469460090059800F069FB0E
:100200000020694600F078FB1CBC5DF814FB000080
:10021000010700002DE9F0474FF0000A8946044627
:10022000C0F820A02046E1688847002876D025281D
:1002300006D0D4E901219047206A401C2062F1E7F2
:10024000E168204600258847C4F81CA00646002720
:10025000C4F818A02A2E09D0304604F036F938B375
:1002600004EB8708303EC8F8186019E059F8041B01
:10027000204604EB87029161E1688847012F06461A
:1002800018D1E069002820DA25F020051DE0D8F813
:10029000180000EB800006EB40003038C8F818006A
:1002A0002046E1688847064604F00FF90028EED1A1
:1002B000012F0AD02E2E08D12046E16888477F1CE6
:1002C0000646022F45F02005C4DBA069002803DAAA
:1002D000404245F00105A061E80701D025F0100576
:1002E000B6B1A6F14100192802D8203645F40065C0
:1002F0004A463146204625604D46FFF731FF58B14A
:10030000012806D0ED1D25F0070000F1080989E756
:1003100004E005F1040985E730468AE7206ABDE874
:10032000F08700000FB400B58DB010A909900091BE
:100330000B904FF0FF300A9000200C900648784454
:100340000690064878446A4607900F9909A800F07D
:100350005BFD0DB05DF814FBE70A0000FF0A00002A
:100360002DE9FF5F4FF00008994614464646916913
:10037000D2E901A7DDF838B001988847054659EA67
:100380000B0005D009E0A1690198761C8847054655
:10039000216A284688470028F5D1681C03D05FEA07
:1003A000CA7005D015E04FF0FF3004B0BDE8F09FF3
:1003B0002068011D2160D0F800800AE05FEACA7061
:1003C00001D108F8015BA169761C01987F1E88475E
:1003D0000546002F1ADD681C18D0B9F1000F0DD0AA
:1003E000E81705EBD060421120F01F0059F82210E9
:1003F0002A1A012090400142E0D107E0BBF1000F32
:10040000DCD12846216A88470028D7D0E1690198C5
:100410008847BBF1000F07D1002E05DD5FEACA70E7
:1004200002D1002188F80010A068B84203DDBBF1BA
:10043000000F03D017B16FF00100B6E73046B4E704
:100440004FF0000200B5134694469646203922BF6D
:10045000A0E80C50A0E80C50B1F12001BFF4F7AFB8
:10046000090728BFA0E80C5048BF0CC05DF804EB9A
:10047000890028BF40F8042B08BF704748BF20F808
:10048000022B11F0804F18BF00F8012B7047704706
:100490007047704710B500F0EBFC006810BD10B558
:1004A000044600F0E5FC046010BD70472DE9FF4FE5
:1004B0000C461E464FF0FF378BB0D2E90001DDF845
:1004C00060800A908A46C1F30A5505B93D4600216D
:1004D00008464FF00000BAF1000F00F4400005DAC2
:1004E00000EB80004FF4400101EA50004FEA9059C0
:1004F000B9F1010F00DDB9460A9850EA4A000ED062
:1005000044F61050A5F2FF3545432F14B8F1000F03
:100510001ED07542291E1EDDC9F100021CE0B8F193
:10052000010F4FF0000001D0302103E0F24305E05D
:100530002154401CB042FBDB3046002200212154F4
:100540000B99C1F80880C1E900200FB0BDE8F08F19
:10055000BD1B6D1CDEE74A4600DA694206A800F0C2
:10056000D3FE06AB93E8070003AB83E807005046D1
:100570000A9901F00AFA8DE80700A0F500501F382B
:1005800000900398002D0ADD42F21F014A460844FC
:10059000002303A90390684601F0B6FC09E0A0F52A
:1005A00000504A461F38002303A90390684601F013
:1005B000D5FC8DE807000004000C03D04FF0FF309D
:1005C000410800E01046B8F1000F03D0002200926D
:1005D00015461EE0751E05D400F04EFC3032625503
:1005E0006D1EF9D5B3460122084302D000227F1CBC
:1005F00004E02078302801D100227F1E002A0997CC
:1006000084D01DE0112D07DA00F036FC303262553F
:100610006D1C50EA0102F5D1084302D00098C8B120
:100620000EE00021681E05E0235C625C63542254E6
:10063000401E491C8142F7DBAB46A81B401E0990B7
:10064000002004F80B000B98099AC0F80880C0E954
:10065000002B7AE711264FF0000857E72DE9F04FFD
:1006600088460446D21D22F0070191B0D1E900016D
:10067000CDE90A0103F063FB02460B98C00F01D0DD
:100680002D2007E02068810701D52B2002E02021E2
:1006900001EAC000032A099001D0072A05DB0346BE
:1006A0004146204600F036FC0BE12078800601D55B
:1006B000E06900E00620B8F1650F814606D0B8F188
:1006C000660F18D0B8F1670F70D131E00020B9F192
:1006D000110F009001DB112301E009F101030AAAC7
:1006E00001A90CA8FFF7E2FEDDE90C70002609F174
:1006F0000105834647E001204B4600904FF000473C
:100700000AAA01A90CA8FFF7D1FEDDE90DB00C99EA
:100710005D46002610B909F101000D18B9EB05007E
:1007200003D4C0F1FF3609F10105A5EB09002BE068
:10073000B9F1010F01DA4FF001090020B9F1110FF1
:100740000090484601DD112300E003460AAA01A9F2
:100750000CA8FFF7ABFEDDE90C704D460026834682
:10076000207800070AD4AB4500DA5D4601A8012DC8
:1007700004DD411911F8011C302907D04F4502DA78
:1007800017F1040F04DA012082460FE06D1EEEE738
:10079000002F02DCED1B3E4403E0781CA84200DD84
:1007A0007D1CB81B00F1010A4FF0004720780007BC
:1007B00003D4AA4501DB4FF0FF3A0021B7F1004F07
:1007C0000DF143088DF8431024D002202B23002F75
:1007D00001DA7F422D230A21021EA0F1010000DC74
:1007E0005FB197FBF1FC97FBF1F201FB1C7C174614
:1007F0000CF1300C08F801CDEEE7A8F10100037010
:100800002188090501D5452100E06521A0F10108F5
:1008100000F8011C09980FA9A1EB0807FF1D00B102
:100820000120411901EBEA70A1693844081A401E01
:10083000A0612078C00602D42046AFF3008009985A
:1008400028B1D4E901219047206A401C2062207819
:10085000C00622D52046AFF300801EE0002E04DB48
:10086000B34502DD01A8805D00E03020D4E901211C
:100870009047206A401C2062761CAAF101005FEAC2
:10088000000A0AD100F0F0FAC0680168405CD4E9BF
:1008900001219047206A401C2062281EA5F1010515
:1008A000DCDC07E0D4E9012118F8010B9047206A4D
:1008B000401C2062381EA7F10107F3DC2046AFF38D
:1008C0000080032011B041E601694A1C02610878EA
:1008D000704700B58FB0CDE9013100210591054980
:1008E0007944CDE9031011466846FFF793FC0FB039
:1008F00000BD0000E5FFFFFF0A6802F8010B0A6077
:10090000704700002DE9FF4F06468BB00878FF289E
:1009100006D0491C2D2805D000244FF0000908E01E
:1009200000200CE00124F8E709EB8903491C00EBE7
:1009300043090878FF28F7D114B1C9F100008146B6
:10094000107800252C46AA4629462D2801D02B28B0
:1009500004D1521C2D2813D0002082468B461078DB
:10096000FF280FD04FF0000C0A21521CA5FB017884
:1009700004FB018105FB0C11C5194BEB0104EEE7EB
:100980000120EAE7002108464FF00000BAF1000F0D
:1009900002D000EB80004008C0F38157012F01DD39
:1009A0004FF0FF370E9955EA040009EB01080BD010
:1009B0004FF0020918F5FA7F16DA4FEACA70002FD5
:1009C000706008DD012007E04FEACA70C6E900B098
:1009D0000FB0BDE8F08F0020306000F049FAC0F899
:1009E00000901821084616E0B8F5FA7F18DD002FB0
:1009F00002DAF748784401E0F6487844D0E900107C
:100A0000C6E9001040EACA70706000F031FAC0F820
:100A10000090142108460FB0BDE8F04F06F055BC19
:100A2000002108464FF00000B8F10001099002DAF9
:100A3000C7F1000200E03A4601DAC8F1000106A859
:100A400000F062FC06AB93E8070003AB83E8070005
:100A500044F23E005BEA04010090584604D144F29F
:100A60001E012C465D460091210C0904014306D16C
:100A70000099240444EA15442D041039009104F02F
:100A80007F41014306D10099240244EA15642D02F6
:100A90000839009104F07041014306D10099240106
:100AA00044EA15742D01091F009104F040410143EF
:100AB00006D10099A40044EA9574AD00891E009106
:100AC00004F00041084304D100986D196441401EB0
:100AD00000904FF001033A466846B8F1000FCDE9A7
:100AE000014503A902DD01F04EFA01E001F021FA0F
:100AF000BAF1000F04460D4601D084F000440021F5
:100B000008464FF00000099940F2FF77484010F086
:100B10000C0F07D124F00040284303D0C4F30A503F
:100B2000B84212D100F0A4F9C0F80090C4F30A5002
:100B3000B8420AD1A8487844D0E90010C6E90010AC
:100B400004F000410843706042E7C6E900543FE703
:100B50002DE9FF4F1F464FF0000A4FF0FF38454682
:100B600091B0D7E90146CDF83CA000F07DF9C0680E
:100B70000168405C1090B96912986D1C8847396A09
:100B8000814688470028F6D1B9F1FF3F0AD0002EF0
:100B900024F4D06411DDB9F12B0F08D0B9F12D0F79
:100BA0000BD102E0404615B013E744F48064B96904
:100BB00012986D1C8847761E8146600504A901D5F0
:100BC0002D2000E02B20002E01F1010B0DF130084B
:100BD0008DF810003FDDB9F1690F08D0B9F1490F68
:100BE00005D0B9F16E0F02D0B9F14E0F1CD13B46C2
:100BF00001A8009580E85002DDE912126FF00200B2
:100C000006F0CCFBC11CCED10EE0B96912986D1C68
:100C1000884781461398761E44F4007405600F9847
:100C2000401C002E0F9016DDB9F1300FEDD0B9F158
:100C3000780F02D0B9F1580F0DD10F9801280AD1C1
:100C40003B46CDE90054DDE91212001F029606F082
:100C5000A3FBC11CA7D1109989453ED144F0800463
:100C600006E01399681CAAF1010A44F400740860B4
:100C7000B9696D1C1298761E884730288146F0D0DD
:100C80002BE01099894505D1200603D4761E44F047
:100C9000800418E0484603F018FC08B3761E0DF1F6
:100CA00023018B4544F4007408D2A9F130000BF8FD
:100CB000010B200607D5AAF1010003E0200602D4AB
:100CC0000AF101008246A00502D51399681C08604C
:100CD000B96912986D1C88478146002ED1DC53E01B
:100CE000002E51DDB9F1650F02D0B9F1450F4BD19E
:100CF000A00549D5B9696D1C1298761E24F440747C
:100D00008847002E81460CDD2B2804D0B9F12D0F29
:100D100007D144F48074B96912986D1C8847761E17
:100D20008146E00501D52D2100E02B2108F8011BAB
:100D3000CDF8008021E0761E0DF13901884544F49C
:100D400000740CD2A9F1300010F0FF0088F8000008
:100D500002D10099884509D908F1010806E0E005AB
:100D600001D51E4801E042F20F708246B96912981F
:100D70006D1C8847814613980560002E04DD4846A7
:100D800003F0A3FB0028D6D1F96912988847FF2009
:100D900053468BF8000088F8000000200A900B9062
:100DA00004AA0CA90AA8FFF7ADFDA00502D46FF0B4
:100DB0000100F8E614F0240F12D0E0071CD13868C7
:100DC000DDE90A12031D3B600068C0E9001213E070
:100DD000646D0000566D00001A6C0000F1D8FFFF32
:100DE0000AA9684603F000FBE00705D13868009ABD
:100DF000011D3960006802602846D4E6026811448B
:100E00001378016018467047D160054979445161F3
:100E100004497944116200211161114600F0BAB809
:100E2000EDFFFFFFED000000426842B1016811F8DC
:100E3000013B23B1521EC0E9001218467047012140
:100E4000C160881E704742685AB1C368016843B9DF
:100E500083688B4205D0491E521CC0E90012002055
:100E600070474FF0FF307047004870474C0100203A
:100E7000004870472C01002030B5B0F10A024FEA5B
:100E8000900E71F100034EEA817EB0EB0E0061EB33
:100E900091014FEA101E4EEA017E10EB0E0041EB6D
:100EA00011114FEA102E4EEA016E10EB0E0041EBCD
:100EB00011214FEA104E4EEA014E10EB0E0041EBAD
:100EC0001141401841F100014FEAD00040EA417061
:100ED0004FEAD10110EB80054FEA810444EA907497
:100EE00044EB01046D1944EB0404521BA3414FF081
:100EF000000348BF0A3200D530BD401C41F100015B
:100F000030BD10B5044600F09BFA0068005D00F0AB
:100F1000010010BD2DE9F0411F460446032601687B
:100F2000072A01F4006004DB08B116A505E016A548
:100F300003E008B115A500E015A521F01000206020
:100F4000A069C01EA0610FB1401EA0612046AFF392
:100F500000804FB1D4E9012138469047206A401CF7
:100F60002062C01C206206E0206AFAE7D4E9012171
:100F700015F8010B9047761EF8D22046AFF300809B
:100F8000BDE8F0814E414E006E616E00494E460054
:100F9000696E66002DE9F34F4FF0000A0C46564685
:100FA0008DB001200C9001F10C000B9062690B9840
:100FB00001219047051E2DD0252D2CD0216A884770
:100FC000C0B162690B9801219047216A88470028C7
:100FD000F7D16269411E0B98904700E0761CA16929
:100FE0000D988847216A88470028F7D1E1690D9854
:100FF0008847DBE7A1690D988847A842074601D1D9
:10100000761CD3E7E1690D9888477F1C02D1BAF1BD
:10101000000F6FD06CE162690B9800273D4639469E
:1010200090472A2804D162690B9801219047012535
:10103000DFF8D08262690B9801219047A0F130015E
:101040000A290AD24745E5DC07EB870100EB410797
:10105000303FDFD445F01005ECE7E90601D46FF02E
:1010600000476C280AD04C2814D0682815D06A286C
:101070000DD074281CD07A281AD01DE062690B9814
:10108000012190476C2802D045F0040514E045F09A
:1010900002050DE045F020050AE062690B98012188
:1010A0009047682802D045F0080505E045F4006542
:1010B00062690B9801219047C4E9015765283DD02A
:1010C00019DC58287AD00CDC452837D004DC2528D8
:1010D00026D041289ED131E046282FD0472899D1EB
:1010E0002CE05B2877D0612828D063287CD0642846
:1010F00023D15AE0F7E06F2848D008DC66281DD0DD
:1011000067281BD0692821D06E2816D127E07028C7
:1011100045D0732868D0752847D078280DD14DE088
:10112000A1690D988847252805463FF469AFE16914
:101130000D9888476D1C3FF46AAFD9E00D9923469E
:101140006A466FF0010006F025F9C6E045F0400060
:1011500023464FF000026060A80736D43EE0E8075F
:101160007FF447AF2068011D21600068290501D583
:1011700006701BE7290701D5068017E7A90703D5E5
:10118000F117C0E9006111E706600FE745F0400084
:1011900023464FF008026060A80716D41EE040F610
:1011A0000E0125EA0100606016E045F0400023468C
:1011B0004FF00A026060A80707D40FE045F0400036
:1011C0006060A80708D5234610220D996FF0010032
:1011D000AFF3008081E007E0102223460D996FF005
:1011E0000100AFF3008078E04FF0000963284F461C
:1011F000C8464B46CB4602D05B2807D039E0207961
:10120000C00601D40120A060012732E06269D4F851
:101210000CB00B98012190475E2807D14FF00109CF
:1012200049466269D4F80CB00B989047216939B9E6
:1012300000210A4603AB43F82120491C0829FADBA8
:10124000D8B3216949B308F1010862690B980121FB
:1012500090475D28F4D1B9F1000F09D0002003A90F
:1012600051F82020D24341F82020401C0828F7DB09
:1012700003AB2069002820794FEA40701ED05B46FE
:101280002246CDF80080CDE901970D9900286FF036
:10129000010020DAAFF300801FE0C11703AA00EBC2
:1012A000D1614B1121F01F0102EB8302411A136837
:1012B0000120884003431360C7E719E00D992246D7
:1012C00000286FF00100009702DAAFF3008004E01D
:1012D000FFF746F801E0AFF3008000280ADA401C6F
:1012E00006D10C9820B14FF0FF300FB0BDE8F08F61
:1012F0005046FAE7E90701D10AF1010A0644002045
:101300000C9053E6CCCCCC0C2DE9F0478146164628
:101310008AB0354878440DC88DE80D0032487844CD
:10132000801C03AC0DC884E80D0041F69B300844D6
:10133000372190FBF1F290FBF1F5A5F1800501FB5F
:1013400012041B3C02D56442012000E00020DFF8BB
:1013500098A080460027FA44AAF1BE0A0EE0E007F2
:101360000AD03246684607EB470101230AEB8101A8
:1013700000F0F4FD8DE8070064107F1C002CEED116
:10138000194F7F44AE3F19E0E80715D007EB041072
:101390000DF1180A90E80E008AE80E00C068F042CD
:1013A00001D1981908903246012306A903A800F03C
:1013B000D5FD03AB83E807006D10641C002DE3D15D
:1013C0004FF0010332466946B8F1000F03A802D07E
:1013D00000F09AFD01E000F0C1FDC9E90001C9F883
:1013E00008200AB0BDE8F087046400000048704798
:1013F0002C0100207546FFF7F9FFAE46050069464F
:10140000534620F00700854618B020B5FEF7DCFEF5
:10141000BDE820404FF000064FF000074FF00008F5
:101420004FF0000B21F00701AC46ACE8C009ACE876
:10143000C009ACE8C009ACE8C0098D46704700009F
:1014400010B5FFF711FD001D10BD00BFF54A0000EB
:101450002DE9FF4F1F464FF03C0987B04FF0004287
:10146000DDE9141001F10108DDF858A002EA40504E
:101470000390002005908346054604460490B96910
:10148000461E08988847AAF1010A0290BAF1000F97
:101490003BDD02982E2815D0102100F060FA0028BC
:1014A0002EDB4FF0010B0599014317D0B9F1000F66
:1014B0000BDB4A46C11700F03FFA05430C43A9F184
:1014C000040905E0012004900BE008B145F0010596
:1014D00001200590049820B9361D02E0049800B15F
:1014E000361FB969089808F101088847BBF1000F59
:1014F000AAF1010A0290C9D00999C1F80080C5E794
:101500000298702808D0502806D0F96908988847B2
:10151000BBF1000F14D04FE0002002900120BBF17E
:10152000000F049009D0B969089808F101088847AC
:10153000AAF10109B9F1000F07DCF9690898884799
:101540006FF001000BB0BDE8F08F2B2804D02D28E0
:101550000CD14FF0FF300490B969089808F10108E8
:101560008847A9F10109B9F1000FE6DD411CE4D07B
:101570000A2100F0F4F90028DFDB029908F10108E4
:1015800001EB810100EB41000290B969089888479E
:101590000A2100F0E4F9099AA9F10109B9F1000F53
:1015A000C2F8008001DD0028E7DAF9690898884769
:1015B0000499029800FB016655EA040004D004F087
:1015C0004041090002D006E0039898E0A40044EAF4
:1015D0009574AD00B61E04F00041080002D16D19EB
:1015E0006441761E159810F0240F03D04FF00B09BC
:1015F0005C4803E04FF028096FF07D0082465645B5
:1016000007DAAAEB06018944B9F1410F01DD4FF079
:10161000410901200021A9F1010200F08DF90246E3
:1016200028400B462140084301D0012100E0002161
:10163000501E029143F1FF3128402140084301D060
:10164000012000E000200299834651EA0B014FD0AF
:10165000002108464FF00000039900F4400039B122
:1016600000EB80004FF4400100EBD07001EA600015
:101670008015012802DD4FF0FF3000E013D0401C40
:1016800036D0029860B3BBF1000F0CD14A4601205E
:10169000002100F051F928402140084301D00120E9
:1016A00000E00020E0B101204A46002100F044F9AA
:1016B000034640190A4661412D1A8C4111D3B9F1F4
:1016C000400F09DD159810F0240F02D0AAF134065E
:1016D00003E0AAF1170600E0761C00254FF0004455
:1016E00006E05B1E42F1FF3220EA030521EA020414
:1016F000CAF10100B04206DA1B4903980843019081
:10170000002000900EE0039AC4F3D321E80A0A43B4
:10171000164940EA44500A433146CDE90002684682
:1017200002F0C8FE159810F0240F0BD01598C007D2
:1017300015D13868DDE90012031D3B600068C0E97F
:1017400000120CE002A8694602F04EFE1598C00790
:1017500005D13868029A011D396000680260404670
:10176000F0E6000002FCFFFF0000F07F0000F03F09
:101770002DE9FF4F92461D4685B04FF00041DDE94F
:10178000124BDDE914727F1E01EA4B50414940F0D3
:10179000FF4940EA0108002122F020004928049175
:1017A00002D04E2828D04CE03BA0012607C88DE887
:1017B0000700A9690698641C88477F1E014606D465
:1017C0001DF8060018B121F0200181420BD0E96913
:1017D00006988847032E34D0082E32D06FF00100CF
:1017E00009B0BDE8F08F761C032E01D0082EE0D1A1
:1017F000601CCAF80000DCE7A9690698641C8847E9
:101800007F1E2AD420F02000412826D1A9690698FD
:10181000641C88477F1E20D420F020004E281CD155
:10182000A9690698641C88477F1E48F4002849F47B
:101830008009CAF8004001D4282806D0E969069832
:1018400088475FEACB7012D022E0A9690698641C31
:1018500088477F1E01D4002803DAE9690698884783
:10186000BCE72928F1D1641CCAF80040E9E71BF065
:10187000240F07D028680499031D2B600068C0E975
:10188000001805E02868021D2A600068C0F8009072
:101890002046A5E70000F07F494E46494E4954597D
:1018A0000000000010B50446AFF300802046BDE8FC
:1018B0001040FEF775BC00004FF0013C50F8042BBF
:1018C00051F8043B9A4221D1A2EB0C03934313EA53
:1018D000CC1317D150F8042B51F8043B9A4215D180
:1018E000A2EB0C03934313EACC130BD150F8042B57
:1018F00051F8043B9A4209D1A2EB0C03934313EA3B
:10190000CC13DBD04FF00000704700BFD01A01BAF3
:10191000B1FA81F101F0180122FA01F0CB40C1F1D6
:101920002001DBB2C0B2C01A2CFA01F3D11A9143E4
:1019300011EAC311E6D17047B2F120030AD5C2F112
:10194000200301FA02F120FA03F300FA02F041EA5F
:101950000301704700FA03F14FF0000070473A2886
:1019600000D2303820F02002412A01D3A2F1370002
:10197000884201D34FF0FF30704700000149182022
:10198000ABBEFEE72600020070475FEA400C08BFCE
:1019900091F0000F4FEA8C234FEAC12243EA5151E4
:1019A0004FEA1C5018BF00F5F0404FEA300018BF56
:1019B00041F000415FEA6C5C00F02980BCF1FF3F20
:1019C00008BF40F080407047130C06BF12044FF070
:1019D000100C4FF0000C130E04BF12020CF1080C97
:1019E000130F04BF12010CF1040C930F04BF9200FB
:1019F0000CF1020CD30F04BF52000CF1010C114684
:101A00004FF00002A0F11F00A0EB0C00704711F096
:101A1000004F08BF704731F000413FF4D5AF0B0CC9
:101A200006BF09044FF0100C4FF0000C0B0E04BF62
:101A300009020CF1080C0B0F04BF09010CF1040C96
:101A40008B0F04BF89000CF1020CCB0F04BF4900BF
:101A50000CF1010CCCF12003A0EB0C0022FA03F3F3
:101A600002FA0CF241EA030100F10100704720F094
:101A70007F4C80EA030023F07F47ACEB070303F5BC
:101A80007C5300F0004003F1FF032DE980494FEA49
:101A9000154B09B44FEA144325EA0B4E24EA0348D8
:101AA0000FF2042606EB132749083E785FEA32025C
:101AB00003FB0667C7F5000707FB06F64FEA543736
:101AC0004FEAD64606F1020607FB066CCCF1005C35
:101AD0004FEA1C472CEA074C07FB06F40CFB06F503
:101AE00004EB15464FEA961634BF00204FF0004035
:101AF0004FEAD13706FB07FC4FEA1C4C0CFB0BF7F7
:101B0000D21B03FB0CF761EB07010CFB0EF7B0EBEC
:101B1000074072EB17420CFB08F734BFA2EB0742F9
:101B2000B2EB074261EB17414FEA0C444FEA9107D1
:101B300006FB07FC4FEA1C4C0CFB0BF7B0EBC74055
:101B400072EB573203FB0CF734BFA2EBC742B2EB88
:101B5000C74261EB57310CFB0EF7B0EBC70072EBDD
:101B600057720CFB08F734BFA2EBC702B2EBC702F7
:101B700061EB5771039F4FEA816141EA921104EBD7
:101B8000CC044FEAD1374FEA826206FB07FC42EAF7
:101B900090124FEA80604FEA1C4C0CFB0BF7D21BF3
:101BA00003FB0CF761EB07010CFB0EF7B0EB0740F2
:101BB00072EB17420CFB08F734BFA2EB0742B2EB03
:101BC000074261EB17414FEA8C554FEA910704EB4E
:101BD0009C2406FB07FC4FEA1C4C0CFB0BF7B0EBFC
:101BE000C74072EB573203FB0CF734BFA2EBC7427E
:101BF000B2EBC74261EB57310CFB0EF7B0EBC700FD
:101C000072EB57720CFB08F734BFA2EBC702B2EBC2
:101C1000C70261EB577115EB4C254FEA816141EA30
:101C200092114FEA82624FEAD13742EA901206FBE4
:101C300007FC44F100044FEA80604FEA1C4C0CFBA7
:101C40000BF7D21B03FB0CF761EB07010CFB0EF744
:101C5000B0EB074072EB17420CFB08F734BFA2EB66
:101C60000742B2EB074261EB174115EB1C154FEA37
:101C7000813141EA92414FEA823242EA90424FEA90
:101C800080304FEA0C7644F1000448EA03434EEA00
:101C90000B484FF0000EB2EB080C71EB030724BFAA
:101CA000624639464EEB0E0E4FF0000B00185241C3
:101CB00049414BEB0B0BB2EB080C71EB03077BF1CB
:101CC000000B24BF624639464EEB0E0E4FF0000B60
:101CD0000018524149414BEB0B0BB2EB080C71EB76
:101CE00003077BF1000B24BF624639464EEB0E0E14
:101CF00051EA020718BF46F0010616EB0E7655F1C1
:101D0000000254F1000103D5BDE88901BDE8008857
:101D1000BDE88901BDE80048B619524141EB010117
:101D2000A3F10103704780807F7E7D7C7B7A797888
:101D3000777676757473727171706F6E6E6D6C6C90
:101D40006B6A6A6968686766666564646363626132
:101D50006160605F5F5E5E5D5D5C5C5B5B5A5A59B3
:101D6000595858575756565555555454535352521F
:101D70005251515050504F4F4F4E4E4D4D4D4C4C77
:101D80004C4B4B4B4A4A4A494949484848474747C0
:101D900047464646454545444444444343434342FD
:101DA000424242414141000046EA0646A3F57053D3
:101DB0004FEA164646EA42564FEAD22242EA4152DA
:101DC00010B54FEAD121A3F1010300F02FF820F064
:101DD000004000F1020C00F0004701EB00501146FA
:101DE000BCF5006F40EA070000D210BDBAF1000F49
:101DF0000AD01CB503B44FF004004FF004014FF0BB
:101E000000000FBCBDE810404FF00001BBF1010F16
:101E1000B9BF04484FF0FF310348002140EA0700F2
:101E200010BD00BFFFFFEF7F0000F07F002B9C463E
:101E300030D477002BD01CB54FEA370703B44FF0EE
:101E400010004FF01001BAF1000F06D0BCF1000FE6
:101E5000DCBF40F0080040F008014FF000000FBC6C
:101E6000BDE810400BF1010BBBF1010F08BF5FEAA9
:101E7000170722BF12F1010211F101014FF00041D9
:101E800043F1000300F0004043EA00007047F9D33B
:101E90005708D0E746EA064613F1400F4FEA1646C8
:101EA0001FDD13F1200FDFBF16430A460021203348
:101EB0005B42BED0C3F1200746EA064602FA07F7A6
:101EC0004FEA164646EA0706C3F1200722FA03F254
:101ED00001FA07F721FA03F14FF0000342EA070283
:101EE000A7E746EA020646EA06464FEA164646EAEB
:101EF0000106BCBF46EA0646360C4FF000034FF021
:101F000000024FF0000194E72DE9804C9A46934679
:101F100070B491E8380007C831EA400C48BF34EA91
:101F2000430C03D5FFF7A3FDFFF780FFF0BCBDE82E
:101F3000008C2DE9804C9A46934670B491E83800A5
:101F400007C831EA400C48BF34EA430C03D5FFF719
:101F50008EFDFFF729FFF0BCBDE8008C2DE9804C19
:101F60009A46934670B491E8380007C810F0804F45
:101F700008BF13F0804F03D100F01AF8FFF756FFA7
:101F8000F0BCBDE8008C2DE9804C9A46934670B4B5
:101F900091E8380007C810F0804F08BF13F0804F59
:101FA00003D100F005F8FFF7FFFEF0BCBDE8008CA0
:101FB00020F07F4780EA030023F07F4C07EB0C03FF
:101FC000A3F57C5300F00040A3F1FE0392F0000F54
:101FD00000F0B38095F0000F00F077802DE9014903
:101FE0004FEA11404FEA144621EA004800FB06FC84
:101FF00024EA064708FB06F607FB08F800FB07F78C
:1020000018EB06484CEB164C4FEA124B18EB0748FE
:102010004FEA15464CEB174022EA0B4E0BFB06FC31
:1020200025EA06470EFB06F607FB0EFE0BFB07F73D
:102030001EEB064E4CEB164C4FF000061EEB074E07
:102040004CEB174B18EB0B0840F1000018EB0E0B94
:1020500058EB000840F100008F1A4FF000013CBF20
:10206000C943661B14BFB5EB040C00213CBFC94338
:10207000F61B4FEA17444EEA8E0E27EA04454FEA54
:102080001C4704FB07622CEA074C05FB07F70CFB17
:1020900005F604FB0CFC16EB074642EB174216EB69
:1020A0000C4642EB1C421BEB060658EB0202414178
:1020B00046EA9E0601D5BDE80189B619524141EBB9
:1020C0000101A3F10103BDE801894FEA14454FEA7C
:1020D000114724EA054621EA074C05FB07F406FBF5
:1020E00007F70CFB06F105FB0CFC11EB074144EB79
:1020F00017444FEA124711EB0C4144EB1C4422EA0F
:10210000074C05FB07F206FB07F70CFB06F605FB81
:102110000CFC16EB074642EB174216EB0C4642EB63
:102120001C456A1854F1000148BF7047B619524166
:1021300041EB0101A3F10103704795F0000F37D087
:102140004FEA11424FEA144721EA024624EA074CBB
:1021500002FB07F106FB07F70CFB06F402FB0CFC85
:1021600014EB074441EB17414FEA154714EB0C44BD
:1021700041EB1C4125EA074C02FB07F506FB07F77C
:102180000CFB06F602FB0CFC16EB074645EB17456D
:1021900016EB0C4645EB1C42121951F1000148BFE9
:1021A0007047B619524141EB0101A3F10103704799
:1021B0004FEA14454FEA114724EA054621EA074C45
:1021C00005FB07F106FB07F70CFB06F24FF00006D4
:1021D00005FB0CFC12EB074241EB174112EB0C42E2
:1021E00051EB1C4148BF7047921841EB0101A3F12C
:1021F00001037047FEE70000014800F079B80000D5
:10220000E80000207047012000F066B972B6FEE7D2
:1022100010B590F821100022022905D00421816315
:1022200080F82020012010BD01680B6823F00E0308
:102230000B6001680B6823F001030B6090F84030DD
:10224000C46B012101FA03F3636080F8211080F868
:102250002020104610BD000010B590F82110002479
:10226000022903D00421816301243DE001680A684A
:1022700022F00E020A6001680A6822F001020A6078
:102280001A4A0168914201D1012121E0174A143212
:10229000914201D110211BE0144A2832914201D110
:1022A000891515E0114A3C32914201D189140FE0A1
:1022B0000E4A5032914202D14FF4803108E00B4A6D
:1022C0006432914202D14FF4801101E04FF08071ED
:1022D000064A083A5160012180F82110002180F857
:1022E0002010416B01B18847204610BD0800024014
:1022F0002DE9F05FC16B0C6801680B68D0F840C035
:10230000042202FA0CF2494DDFF824A1494E4A4F4B
:10231000DFF828B1DFF828E122422CD05A072AD56D
:102320000A68920603D40A6822F004020A6001686F
:10233000A94201D1042219E0514501D1402215E002
:10234000B14202D14FF4806210E0B94202D14FF4A1
:1023500080420BE0594502D14FF4802206E07145DE
:1023600002D14FF4800201E04FF080622F4908391A
:102370004A60C16A3BE04FF0020808FA0CF818EA1C
:10238000040F4FF000094FF0010235D05FEA837867
:1023900032D50B689B0605D40B6823F00A030B604B
:1023A00080F821200168A94201D1022219E051459B
:1023B00001D1202215E0B14202D14FF4007210E0A9
:1023C000B94202D14FF400520BE0594502D14FF40B
:1023D000003206E0714502D14FF4001201E04FF0E7
:1023E0000072124908394A6080F82090816A0029F9
:1023F0001AD0BDE8F05F0847082505FA0CF525421C
:1024000012D01B0710D50B6823F00E030B6090F859
:102410004010C36B02FA01F15960826380F82120F9
:1024200080F82090016BE2E7BDE8F09F08000240D1
:102430001C000240300002404400024058000240AC
:102440006C00024030B528B308C81349142219445F
:10245000B1FBF2F18900C163104981630221417728
:102460001A6843F6F0718A43D0E900142143D0E999
:1024700002452C4321430469214344692143846973
:102480002143114319600021416301224277017702
:10249000084630BD012030BDF8FFFDBF00000240FE
:1024A00070B5044600F014F90546601C02D00448DB
:1024B0000078044400F00CF9401BA042FAD370BD30
:1024C00038000020012804D1024803214170012175
:1024D0008161704700000020044910B50A6802427B
:1024E00002D00860FFF7EEFF10BD000014040140A9
:1024F0002DE9F84FDFF8B8910024A9F1040B234629
:102500000F2709F1040AABF1040EC9E00125A5402B
:102510002A40AA427DD1674ED1F804C0ACEB060830
:10252000B44532D014DCBCF1030F3AD009DCBCF165
:10253000000F2AD0BCF1010F1CD0BCF1020F31D129
:102540001DE0BCF1110F17D0BCF1120F2AD119E018
:10255000B8F5881F19D006DCB8F5803F15D0B8F55E
:10256000801F1FD111E0B8F5001F0ED0B8F5041F71
:1025700018D10AE0CB6815E0CB681B1D12E0CB68D0
:1025800008330FE0CB680C330CE08B682BB1012BC8
:102590004FF0080303D0456104E0042302E0056125
:1025A00000E00023FF2A01D8064601E000F10406FE
:1025B0004FEA840501D9A5F12005D6F8008007FA75
:1025C00005FC28EA0C0803FA05F548EA0508C6F8F0
:1025D00000804D68ED0062D5374DAE6946F00106CA
:1025E000AE61AD6924F0030605F001050095334D99
:1025F00006EB050CDCF80850A607360F07FA06F8BC
:1026000025EA0805DFF8B880404503D14FF00008FF
:1026100017E044E0DFF8AC80404502D14FF00108FC
:102620000FE0DFF8A480404502D14FF0020808E037
:10263000DFF89880404502D14FF0030801E04FF0E9
:10264000040808FA06F848EA0508CCF808804D683E
:10265000D9F80060ED024D4601D5164300E09643DF
:102660002E604D68DAF80060AD02554601D516437C
:1026700000E096432E604D68DBF80060AD035D46D8
:1026800001D5164300E096432E604D68DEF80060E9
:10269000ED03754601D5164300E096432E60641C99
:1026A0000D682A46E5407FF431AFBDE8F88F0000A1
:1026B0000804014000001110001002400000014019
:1026C00000080140000C01400010014000140140CE
:1026D0000148806870470000380000200248816887
:1026E000027811448160704738000020074810B517
:1026F000016841F010010160032000F075F80F201F
:1027000000F006F800F024F8002010BD0020024080
:1027100070B50D4D04464FF47A712878B1FBF0F096
:102720000A490968B1FBF0F000F0DCFA48B9102C56
:1027300007D200222146501E00F036F800206C60BF
:1027400070BD012070BD0000380000204400002052
:102750000C4808B5816941F001018161816901F08E
:1027600001010091C16941F08051C161C06900F06F
:10277000805000900448416821F0E06141F0007110
:10278000416008BD0010024000000140002809DB44
:1027900000F01F02012191404009800000F1E0207B
:1027A000C0F8001170470000F0B40E4B1B680C46D7
:1027B000C3F30223C3F10705042D00D90425191D15
:1027C000072901D2002300E0DB1E012606FA05F1ED
:1027D000491E214099409E40761E16403143F0BC70
:1027E00001F0C1BA0CED00E0064900F007020868EC
:1027F0004FF6FF03184040EA0220034A10430860E6
:10280000704700000CED00E00000FA052DE9F047EC
:102810000F46050061D0434E306800F00700B84213
:1028200009D2306820F0070038433060306800F08B
:102830000700B84251D128683B4C810712D54007A8
:1028400003D5606840F4E06060602878000703D535
:10285000606840F4605060606068A96820F0F00033
:10286000084360602878C00728D06868012810D025
:102870002168022810D0890700292EDA616821F02A
:10288000030101436160FFF723FF804641F288396D
:102890000DE021688903EFE78901EDE7FFF718FFF5
:1028A000A0EB0801494502D90320BDE8F087606824
:1028B000696800F00C00B0EB810FEFD1306800F0D8
:1028C0000700B8420BD9306820F007003843306069
:1028D000306800F00700B84201D00120E5E7287811
:1028E000400705D56068E96820F4E060084360604F
:1028F0002878000706D56068296920F4605040EA0E
:10290000C100606000F038F86168084AC1F3031143
:10291000515CC8400649086006480068FFF7F8FEA9
:102920000020C2E70020024000100240EC730008C3
:10293000440000203C000020044805490068496824
:10294000044AC1F30221515CC84070474400002092
:1029500000100240FC7300080448054900684968FB
:10296000044AC1F3C221515CC840704744000020B2
:1029700000100240FC7300080E4A51680E4801F036
:102980000C03042B11D0082B0FD10C48C1F3834347
:10299000C903C05C0AD55168084AC1F34041921E80
:1029A000515C054A5043B0FBF1F07047044948437D
:1029B000704700000010024000127A00DC7300082B
:1029C00000093D002DE9F84F040070D02078C04D7B
:1029D000C00749D06868C0F38100012807D0686843
:1029E000C0F38100022809D16868C00306D52868B1
:1029F000800339D560680028E7D035E06068B0F51D
:102A0000803F0BD010B1B0F5A02F11D0286820F472
:102A100080302860286820F4802002E0286840F494
:102A200080302860606890B1FFF752FE06460AE0E9
:102A3000286840F480202860F0E700BFFFF748FED8
:102A4000801B642873D828688003F7D50CE0FFF753
:102A50003FFE064605E000BFFFF73AFE801B6428F4
:102A6000F0D828688003F7D420789A4E80074FF07A
:102A700001094FF0000839D5686810F00C0F07D035
:102A80006868C0F38100022809D16868C00306D4D1
:102A90002868800714D52069012808D110E0206932
:102AA000B0B1C6F80090FFF713FE074605E00AE153
:102AB000FFF70EFEC01B0228C4D828688007F7D590
:102AC0002868616920F0F80040EAC10028600DE044
:102AD000C6F80080FFF7FCFD074604E0FFF7F8FDAD
:102AE000C01B022823D828688007F7D42078000765
:102AF0002CD57948A169D9B1C0F80090FFF7E8FD5D
:102B0000074604E0FFF7E4FDC01B02280FD8686AFF
:102B10008007F7D571484FF4FA510068B0FBF1F027
:102B2000009000BF0098411E0091FAD20EE080E0B4
:102B3000C0F80080FFF7CCFD074604E0FFF7C8FDB2
:102B4000C01B022875D8686A8007F7D42078400730
:102B500060D5E8690027C00008D4E86940F08050DB
:102B6000E861E869012700F0805000905C48016846
:102B7000C90513D40168834641F480710160FFF7F1
:102B8000A7FD824606E000BFFFF7A2FDA0EB0A000A
:102B900064284ED8DBF80000C005F5D5E0680128B0
:102BA0000AD008B1052813D0286A20F00100286255
:102BB000286A20F0040002E0286A40F00100286240
:102BC000E06841F2883B98B1FFF782FD82460BE056
:102BD000286A40F004002862EEE700BFFFF778FDA6
:102BE000A0EB0A0159455AD8286A8007F6D50CE0AF
:102BF000FFF76EFD824605E0FFF76AFDA0EB0A01D4
:102C000059454CD8286A8007F6D41FB1E86920F0EE
:102C10008050E861E06988B36968C1F381010229E5
:102C200044D00228C6F8608004D0FFF751FD044666
:102C300038E034E0FFF74CFD074604E0FFF748FDBD
:102C4000C01B02282BD828688001F7D4206AB0F571
:102C5000803F05D16868A16820F4003008436860AF
:102C6000D4E908010843696821F4741108436860D5
:102C7000C6F86090FFF72CFD044606E025E000BF93
:102C8000FFF726FD001B022809D828688001F7D528
:102C90001BE000BFFFF71CFD001B022802D9032028
:102CA000BDE8F88F28688001F4D40EE00128F7D041
:102CB0006868226A00F48031914204D1616A00F4AC
:102CC0007010884201D00120EAE70020E8E7000008
:102CD00000100240000042428004424244000020B2
:102CE0000070004010B5401EB0F1807F01D301207C
:102CF00010BD4FF0E02460610F21601701F033F840
:102D00000020A06107202061002010BD10B590F8C0
:102D10003C20012A22D0012280F83C20CA688C681D
:102D200022F4407222434C6822F4806222430C68F1
:102D300022F4006222430C6922F4805222434C693F
:102D400022F400522243C969002322F480420A433C
:102D500001684A6480F83C30002010BD022010BD9C
:102D600070B590F83C20012A26D0012480F83C4020
:102D7000022280F83D2003685A689D6822F07006A0
:102D80000A6832435A600D4B02689A4208D0B2F189
:102D9000804F05D00A4B9A4202D00A4B9A4204D186
:102DA000496825F080031943916080F83D40002177
:102DB00080F83C10084670BD022070BD002C014018
:102DC000000400400008004010B5040003D094F84F
:102DD0003D0010B107E0012010BD002084F83C0048
:102DE000204600F01FF8022084F83D00211D2068D5
:102DF00000F056FD012084F8460084F83E0084F877
:102E00003F0084F8400084F8410084F8420084F8D0
:102E1000430084F8440084F8450084F83D00002015
:102E200010BD000038B505460068124988421FD120
:102E30001148816941F4006181618069104C00F49E
:102E4000006000900D48206010206060002080210C
:102E5000C4E90201490021618900C4E90510E0616B
:102E60002046FFF7EFFA08B1FFF7D0F96C62656210
:102E700038BD0000002C0140001002401C00024040
:102E8000E800002070B5044690F83C0000250128B9
:102E900017D0012684F83C60022084F83D002068A9
:102EA000826822F0770222F47F428260086850280C
:102EB00038D00DDC20284FD005DC90B3102811D17C
:102EC0004AE0022070BD302846D040280AD13BE0BD
:102ED00060282FD070280DD0B0F5805F03D0B0F5FA
:102EE000005F12D0012584F83D60002084F83C008A
:102EF000284670BDCB68D1E90121206800F019FD9A
:102F00002068816841F0770109E0CB68D1E90121AF
:102F1000206800F00EFD2068816841F480418160E6
:102F2000E1E719E0CA684968206800F0B7FD502160
:102F3000206806E0CA684968206800F0C0FD60218A
:102F4000206800F000FDCEE7CA684968206800F0FC
:102F5000A5FD40212068F4E7226801461046F0E70D
:102F600000B585B0002100910191029103910068A4
:102F70000B49884212D10B48816941F004018161FB
:102F80008069694600F0040004904FF4407000909E
:102F90000220019003900448FFF7AAFA05B000BD93
:102FA000002C0140001002400008014070B50446AA
:102FB00090F83C0000260D4601280FD0012084F82F
:102FC0003C006AB1042A1DD0082A2FD00C2A3FD019
:102FD0000126002084F83C00304670BD022070BD00
:102FE000206800F0B9FC2068816941F00801816126
:102FF0002068816921F004018161206881692A6962
:10300000114311E0206800F0CFFC2068816941F491
:10301000006181612068816921F48061816120689B
:1030200081692A6941EA02218161D2E7206800F0C2
:10303000E7FC2068C16941F00801C1612068C169ED
:1030400021F00401C1612068C1692A69114311E0BE
:10305000206800F001FD2068C16941F40061C16190
:103060002068C16921F48061C1612068C1692A6951
:1030700041EA0221C161ACE710B5040003D094F825
:103080003D0010B107E0012010BD002084F83C0095
:10309000204600F01EF8022084F83D00211D206823
:1030A00000F0FEFB012084F8460084F83E0084F81E
:1030B0003F0084F8400084F8410084F8420084F81E
:1030C000430084F8440084F8450084F83D00002063
:1030D00010BD704710B50446022249B104290ED034
:1030E000082913D094F84100012816D0012010BD02
:1030F00094F83E000128F9D184F83E200FE094F8BE
:103100003F000128F2D184F83F2008E094F8400005
:103110000128EBD184F8402001E084F8412001220D
:10312000206800F0F9FB0F492068884203D1426C07
:1031300042F4004242642068884208D0B0F1804FD7
:1031400005D00949884202D00849884204D18168E3
:1031500001F00701062903D0016841F00101016077
:10316000002010BD002C0140000400400008004079
:1031700070477047F8B5016804460868CA684B692B
:1031800010F00F0F4FF0000559D003F0010602F4C4
:103190009077374365D0C10705D0D10503D5616C61
:1031A00041F001016164410705D5D90703D0616C85
:1031B00041F002016164810705D5D90703D0616C34
:1031C00041F004016164010707D502F02001314399
:1031D00003D0616C41F008016164616C00293AD050
:1031E000800604D5900602D5204600F0A9FC206890
:1031F0004069616CC0F38010090700D460B32046B9
:1032000000F077FC20684069400621D52068143022
:1032100050E8001F21F0400140E80012002AF5D1DB
:10322000E06BA8B16D494163E06BFFF715F800282A
:1032300011D0E06B416B01B0BDE8F0400847830658
:103240000FD593060DD52046BDE8F84000F078BCB8
:103250002046FFF78EFFF8BD2046FFF78AFF656422
:10326000F8BD266B2023012E7CD1C6067AD5D60662
:1032700078D508684868009048694FF00206400613
:1032800040D5E16B086840680004000CE8D0A28DCE
:103290008242E5D9E085886920282DD020680C304D
:1032A00050E8001F21F4807140E80012002AF5D197
:1032B0002068143050E8001F21F0010140E800129E
:1032C000002AF5D12068143050E8001F21F0400199
:1032D00040E80012002AF5D184F8423025632068C6
:1032E0000C3050E8001F21F0100140E80012002AC5
:1032F000F5D1E06BFEF78CFF6663A08DE18D401A7F
:1033000081B22AE0A08DE18D401A81B2E08D0028C3
:10331000A6D00029A4D022680C3252E8000F20F475
:10332000907042E80007002FF5D12068143050E873
:10333000002F22F0010240E80027002FF5D184F889
:103340004230256320680C3050E8002F22F0100234
:1033500040E80023002BF5D166632046FFF708FF05
:10336000F8BDFFE705062BD5150629D594F84100D1
:103370002128F5D1A068B0F5805F01D12069B0B1F6
:10338000206A411C2162216800784860E08C401E60
:103390000004000CE084E3D12068C16821F08001C2
:1033A000C1602068C16841F04001C160D8E7206A6F
:1033B0000088C0F308004860206A801C2062E5E7AE
:1033C0004006CDD55006CBD5CA68204622F0400233
:1033D000CA6084F8413000F01EF9C1E7E33A000802
:1033E00070B5040004D094F84100002510B106E047
:1033F000012070BD84F84050204600F023F82420BE
:1034000084F841002068C16821F40051C160204661
:1034100000F0F8FB2068016921F490410161206807
:10342000416921F02A0141612068C16841F40051DD
:10343000C1606564202084F8410084F8420065631F
:10344000002070BD30B585B0002400940194029432
:1034500003940068184988422BD11848C16941F487
:103460000031C161C16901F400310491816941F009
:10347000040181618069124D00F004000490042071
:103480000090022001900320039069462846FFF730
:103490002FF80820CDE90004694628460294FFF77A
:1034A00027F8002211462620FFF77EF92620FFF795
:1034B0006DF905B030BD000000440040001002402E
:1034C000000801402DE9F84F044690F842009A4662
:1034D00016460D46202802D00220BDE8F88FB5B16F
:1034E000AEB100206064222184F842102063FFF70F
:1034F000EFF8A6858146E685A0684FF4805820271E
:10350000404501D1206920B12E46002529E0012047
:10351000E3E7002625E04B46002220212046CDF897
:1035200000A000F0CBFB18B184F842700320D4E770
:1035300026B1A06840451AD038B108E0206840683C
:10354000C0F3080025F8020B08E0206978B1206874
:10355000406800F07F0000BF06F8010BE08D401EC0
:10356000E085E08D0028D6D184F84270B5E7206868
:103570004068F1E770472DE9F843044690F84100B0
:10358000984616460D46202802D00220BDE8F88352
:1035900085B17EB100206064212084F84100FFF7EE
:1035A00097F8A6848146E684A0682027B0F5805F5E
:1035B00002D003E00120E9E7206910B12E46002582
:1035C0000EE000260CE08021204600F077FBA8B931
:1035D000C6B116F8010B21684860E08C401EE084FB
:1035E000E08C4B464FF00002CDF800800028EAD175
:1035F0004FF04001204600F061FB40B184F841707B
:103600000320C3E735F8020BC0F30800E3E784F8B2
:1036100041700020BAE77047FEE7000010B596B091
:1036200000240F9410941194129413941C21684652
:103630001494FCF705FF202107A8FCF701FF2C4894
:103640002A4901600721C0E9011444F61F61C0E95D
:10365000031444618461FFF7B7FB08B172B6FEE75B
:103660004FF480500F900FA92148FFF70BFC08B1D1
:1036700072B6FEE71E48FFF7FFFC08B172B6FEE720
:10368000139413A91A481494FFF76AFB08B172B691
:10369000FEE76020CDE900040294039404940594AD
:1036A0000022694612480694FFF780FC08B172B602
:1036B000FEE7042269460E48FFF778FC08B172B6AF
:1036C000FEE70794089409944FF400500A94CDE95A
:1036D0000B4007A906480E94FFF718FB08B172B615
:1036E000FEE70348FFF73CFC16B010BD002C01407C
:1036F00048000020FEE7FEE7704700002DE9F34F89
:103700004B4C8B4681B0E16801980F4603F068FD91
:103710004FF40006DFF81C91DFF81CA1474D6060F4
:10372000B04215DB384603F0A3FA4A46534602F08E
:103730004FFC02F01BFC0146E060019803F014FD11
:1037400006D2E06802F00AFB03F0EEFB296848634A
:103750003B4F60684FF08048B84218D3E06803F0F0
:1037600087FA4A46534603F099F902F0FFFB0146F7
:10377000E060019803F0F8FB09D24146E06803F0ED
:103780002FFD02F0EBFA03F0CFFB296848632169B3
:103790005846009103F024FDA060B04214DB00986D
:1037A00003F066FA4A46534602F012FC02F0DEFBD2
:1037B0005946206103F0D8FB06D2206902F0E8FAEE
:1037C00003F0B2FB29688863A068B84217D3206968
:1037D00003F04EFA4A46534603F060F902F0C6FB86
:1037E0005946206103F0C0FC09D24146206903F02C
:1037F000F7FC02F0CDFA03F097FB296888630120FB
:10380000FEF74EFEE168019803F0DFFC0D4D20F05D
:103810000040A84209DA5946206903F0E1FC20F093
:103820000040A84201DA01206061BDE8FE8F00007F
:10383000000000209A9999999999B93F4800002071
:1038400000008080CDCCCC3D7047FEF747BF10B55F
:1038500090B028216846FCF7F3FD14210AA8FCF774
:10386000EFFD02200090012004901020002405901C
:1038700007946846FFF7A6F808B172B6FEE70F2076
:10388000CDE90A040C940D9400210AA80E94FEF7C9
:10389000BDFF002801D072B6FEE710B010BD704722
:1038A000F0B50268194B1A4C1A4D4FF080479842F8
:1038B00005D0B84203D0A04201D0A84203D122F0E3
:1038C00070064A683243984205D0B84203D0A042FD
:1038D00001D0A84203D122F44074CA6822434C6943
:1038E00022F08002224302608A68C2620A68826211
:1038F000984201D109690163012141610169C90748
:1039000003D0016921F001010161F0BD002C0140EB
:10391000000400400008004010B501F01F03012121
:10392000046A99408C430462016A9A40114301621F
:1039300010BD10B5846842EA032224F47F440A4390
:103940002243826010BD826822F070020A4342F076
:10395000070181607047000030B5036A026A22F0F7
:10396000010202624268846924F073050C682C43EA
:1039700023F002058B682B430A4DA8420BD123F09C
:103980000805CB6822F440722B434D6923F00403F1
:1039900015438A692A43426084614968416303622E
:1039A00030BD0000002C014030B5026A036A23F0EC
:1039B00010030362436884690D6824F4E64444EA12
:1039C00005248D6822F0200242EA05120B4DA84220
:1039D0000ED1CD6822F0800242EA05124D6923F42F
:1039E000406343EA85038D6922F0400243EA850380
:1039F0004360846149688163026230BD002C0140EC
:103A000030B5036A026A22F4807202624268C469B5
:103A100023F4007324F073050C682C438D6843EA8B
:103A200005230C4DA8420ED1CD6823F4006343EA70
:103A300005234D6922F4405242EA05128D6923F4B0
:103A4000806342EA05124260C4614968C16303624F
:103A500030BD0000002C014030B5046A026A22F437
:103A6000805202624268C3690D6823F4E64343EA68
:103A700005238D6824F4005444EA0534064DA84219
:103A800004D14D6922F4804242EA85124260C3614A
:103A900049680164046230BD002C014010B5036A1E
:103AA000046A24F001040462846924F0F00444EA06
:103AB000021423F00A020A438461026210BD10B5A9
:103AC000036A046A24F010040462846923F0A003EA
:103AD00024F4704444EA023243EA01118261016233
:103AE00010BD10B5406A0021C185C184FFF741FBBC
:103AF00010BD01680C3151E8002F22F4907241E8AA
:103B00000023002BF5D10168143151E8002F22F079
:103B1000010241E80023002BF5D1016B012909D1F5
:103B200001680C3151E8002F22F0100241E8002317
:103B3000002BF5D1202180F842100021016370474D
:103B400008B590F84210222901D0022008BD8268F1
:103B50004FF480539A4201D1016921B1816A9A429E
:103B60001BD04AB10AE00268816A5268C2F30802B7
:103B70000A80816A891C08E0026972B10268526891
:103B800002F07F020A70816A491C8162C18D491E60
:103B90000904090CC18503D01BE002685268F1E7F3
:103BA0000168CA6822F02002CA600168CA6822F46B
:103BB0008072CA6001684A6922F001024A612021CC
:103BC00080F8421000214163026B012A03D0FFF705
:103BD000D1FC002008BD016301680C3151E8002FC1
:103BE00022F0100241E80023002BF5D101680A6899
:103BF000D20602D50A6849680091818DFFF7B8FAAC
:103C0000E7E7000070B5044600680169E26821F446
:103C10004051114301612169A0680843616908436B
:103C20002168CA6841F20C639A430243CA60206863
:103C30004169A26921F44071114341611E49206824
:103C4000884202D1FEF788FE01E0FEF775FE00EB28
:103C5000C00101EB0012606864218000B2FBF0F348
:103C6000B3FBF1F36FF018067343B2FBF0F5B2FB50
:103C7000F0F605EB8305322303EB0515B5FBF1F5F3
:103C8000B6FBF1F605F0F00505EB0615B2FBF0F614
:103C9000B2FBF0F0B0FBF1F06FF01802504306EB0E
:103CA000800003EB0010B0FBF1F0216800F00F0082
:103CB0002844886070BD0000003801402DE9F843B9
:103CC000984617460D460446089E24E0701C22D0F4
:103CD000FEF7FEFCA0EB0800B0421AD8CEB1206877
:103CE000C168490717D5802D15D0402D13D0016824
:103CF000C94309070FD40168002540680090204699
:103D0000FFF7F7FE0820606484F840500120BDE80A
:103D1000F8830320FBE72068006835EA000004D040
:103D20000020B842D2D00020F1E70120F9E70000DE
:103D30000148FFF71FBA000090000020FEE749008D
:103D400050EAC12018BF04204A0D18BF40F00100FE
:103D500040F2FF72B2EB515F08BF40F00200012851
:103D600008BF052070470907090E002804DB00F191
:103D7000E02080F80014704700F00F0000F1E02010
:103D800080F8141D704700002DE9F74F144694B0D9
:103D90000021C4E902111599079121F00045C94994
:103DA0008D4206DC1599C4E9000117B00020BDE87A
:103DB000F08FC549DFF814A3A9423CDD0799C44E32
:103DC0000029C44FC44A1599534619DD02F066FE16
:103DD000554506D0C14AC24B02F060FEC4E900015D
:103DE0000AE04FF0D352BE4B02F058FE32463B463B
:103DF00002F054FEC4E9000117B00120BDE8F08FC5
:103E000002F0E6F8554506D0B44AB54B02F0E0F8AA
:103E1000C4E900010AE04FF0D352B14B02F0D8F8E8
:103E200032463B4602F0D4F8C4E9000117B04FF027
:103E3000FF30BDE8F08FAB49A942159978DB21F03E
:103E4000004183468846A84AA84B02F0A7FB0022FF
:103E5000A74B02F0BDF802F00BFB099002F037FB14
:103E600006460F469C4A534602F098FB43465A4684
:103E700002F022FD80468A46984A994B30463946E0
:103E800002F08CFB2A0D01250B924246534602F0AC
:103E900013FD032DC4E9000139D00B98C1F30A5179
:103EA000401A05EB45111139814230DA9148C34679
:103EB000784400EB0510CDF80CA00C90D0E900235D
:103EC0003046394602F06AFB02460B4604910690E2
:103ED0005846039902F0E2FD80468A4602460B46A8
:103EE0005846039902F0DAFD049B069A02F0D6FDCB
:103EF00083460C9803913946D0E90223304602F0FC
:103F00004DFB5A46039B02F0C9FD6D1CBDE70798A7
:103F10000028A2BF099817B0BDE8F08F616881F052
:103F200000416160099817B04042BDE8F08FFFE79B
:103F300084461598C1F31301C0F30A50A0F2F5307E
:103F40004FEA601800F01F06C6F120001390002011
:103F50000690079041F4801E05206D4676B1664AB2
:103F600008EB00017A4452F8213002EB8101B340A2
:103F70004A68139922FA01F1194305E05F4908EBF9
:103F80000002794451F82210A1FB0E27A1FB0C136B
:103F90001A449A4234BF0123002303EB070A05EBBE
:103FA0008003D3E901B70F448F4234BF01210021C0
:103FB00093448B4411B1934502D903E0934501D258
:103FC000012100E00021C3E901B7514445F8201068
:103FD000011EA0F10100C1DC0298059F00F1005014
:103FE000800F12900298DDE90356800002F06FFA0C
:103FF000834628460D9102F081FA6FF01D0203F00E
:104000009BF9CDE90E01304602F078FA6FF03D02DF
:1040100003F092F980468A46384602F06FFA6FF054
:104020005D0203F089F9074642465346119101F0BB
:10403000CFFFDDE90E2301F0CBFF5A460D9B01F0C7
:10404000C7FF00250E465A4628460D9B02F026FD66
:10405000DDE90E2302F022FD4246534602F01EFD2A
:104060003A46119B02F028FCDFF898A0244A5346F8
:1040700002F094FA07468846234A244B31462846E4
:1040800002F08CFA3A46434601F0A2FF0746884602
:104090004FF0A84253463146284602F07FFA3A468E
:1040A000434601F095FF159A12F0004F04D0129A82
:1040B00081F0004152421292C4E90001129817B0F7
:1040C000BDE8F08FFB21E93F7CD90240FB21F93F9D
:1040D0007370032E8A19A33B000040543163621AA7
:1040E00061B4D03DFB21394183C8C96D305FE43FE5
:1040F0000000E03FFC360000783600005A36000031
:10410000182D4454FB21F93D3326A611460B113CD2
:104110002DE9FF4D21F0004807460C46B8F1795FC4
:1041200008DA02F0A5F9002801BF0020324904B0E6
:10413000BDE8F08D3A4623461046194602F02EFAA5
:10414000054602462D480E460B460621784400F0EF
:104150005DF82A46334602F021FADDE90223824661
:104160008B463846214602F019FA04460F4652465D
:104170005B462846314602F011FA22463B4602F0E1
:104180008DFC07468A464FF0FF322846314603F041
:10419000D3F81B4A90450ADA3A46534602F07EFCB1
:1041A00004B00022BDE8F04D134B02F085BB154A68
:1041B0004245A8BFA8F500154FF00004B8BF124D46
:1041C00022462B4602F06AFC0646884622462B46CB
:1041D0000020094902F062FC04460D463A46534667
:1041E0003046414602F05AFC04B022462B46BDE858
:1041F000F04D02F061BB00000000F03F28340000E9
:104200003333D33F0000E93F0000D23F2DE9F041B6
:104210004F1E00EBC7010446D1E9000115461E46BA
:1042200037F006020DD02A46334602F0B7F97F1E5A
:1042300004EBC703D3E9002301F0CAFE37F00602FE
:10424000F1D1022F25D0042F13D0062F18BFBDE8BF
:10425000F0812A46334602F0A1F9D4E90A2301F09D
:10426000B7FE2A46334602F099F9D4E9082301F053
:10427000AFFE2A46334602F091F9D4E9062301F055
:10428000A7FE2A46334602F089F9D4E9042301F057
:104290009FFE2A46334602F081F9D4E9022301F059
:1042A00097FE2A46334602F079F9D4E90023BDE8A7
:1042B000F04101F08DBE00002DE9FF4D054621F0D3
:1042C000004084B00C46B0F1795F0BDA2846FFF766
:1042D00036FD042808BF00F07FF8284608B02146C4
:1042E000BDE8F08D2A460B46104602F057F9064607
:1042F0000F462A46234602F051F9804626488A4650
:1043000032463B4605217844FFF780FF83461098EC
:10431000029160B3214A224B4046514602F03EF9D9
:10432000CDE900015A4640465146029B02F036F95B
:1043300082468846DDE906014FF0FF3202F0FCFFBD
:104340005246434602F0AAFB32463B4602F026F9AB
:10435000DDE9062302F0A2FBDDE9002302F09EFB6B
:1043600008B02A462346BDE8F04D02F0A5BA0B4638
:104370005A463046394602F011F9084A084B01F016
:1043800027FE4246534602F009F908B02A46234662
:10439000BDE8F04D01F01CBE6E3300004955555587
:1043A0005555C5BF002213461046014901F0CCBE49
:1043B0000000F03F012202F0BFBF01F009BE002261
:1043C00013461046114601F0BFBE40F201320020F4
:1043D0004FF0E04102F0B0BF024A0020110702F0A6
:1043E000ABBF000001FDFFFF10B50446D1E900019D
:1043F00000F002F8206010BDF8B504460D466A468C
:1044000000F0CCFD00987E30009000281EDC0022D9
:1044100013462046294601F0EFFF17D0002140F651
:1044200008004FF0000006462046294601F09EFD98
:10443000044640F6080006EA00014FF0000034F0A0
:10444000004004BF0220FCF72AF829E00098FF286A
:1044500028DB002108464FF0000000F4400600224F
:1044600013462046294602F097F98CBF0025012506
:104470000220FCF714F84FF0FF4446B1002D0CBFAA
:104480004FF400004FF48000B04218BF084C0421E4
:1044900008464FF00000002D04BF84F00040F8BD36
:1044A0002046F8BD20462946BDE8F84001F05EBD33
:1044B000FFFF7F7F10B504460A46D4E90003194682
:1044C00000F01CFEC4E9000110BD30380A2801D2FA
:1044D00001207047002070472DE9F04D0546DFF8B8
:1044E000388221F000408D4F82B00C46404520DBE1
:1044F000A0EB080129430BD08949884201DC10D187
:104500007DB102B028462146BDE8F04DFFF752BF0D
:10451000002CC7BF002001468248394602B0BDE8E2
:10452000F08D0120FBF7BBFF02B0BDE8F04DFFF7B7
:1045300046BF7D49884244DA7C498142A1BF79481F
:104540007B4902B0BDE8F08D2A4623461046194645
:1045500002F024F88346024676480E460B460621B2
:104560007844FFF753FE5A46334602F017F80746E1
:1045700071488A465A46334604217844FFF746FE7E
:104580005A46334602F00AF80022434601F020FD65
:1045900002460B463846514601F0D6FD2A462346D0
:1045A00001F0FCFF654A664B02F086F92A46234675
:1045B00002F082F902B05B4ABDE8F04D5C4B02F0BC
:1045C0007BB9002C4FF000024BDA464643462846A2
:1045D000214601F0FDFC4FF0FF3202F0ADFE044633
:1045E000024658480D460B4606217844FFF70EFE5A
:1045F00022462B4601F0D2FF804653488A46224687
:104600002B4604217844FFF701FE22462B4601F099
:10461000C5FF0022334601F0DBFC06468B462046F0
:10462000294601F01FFC04460D4632465B464046D3
:10463000514601F089FD22462B4601F0AFFF3F4A6B
:104640003F4B02F02BFA22462B4601F0C1FC01221F
:1046500002F072FE02B03B46BDE8F04D314A02F076
:104660002BB92D4B2846214602F026F94FF0FF3298
:1046700002F062FE05460E4601F0F4FB00270C46F0
:1046800080463A460B4601F0A3FC82468B463A46EA
:1046900023461046194601F081FF2A46334602F0B0
:1046A0000BF952465B4601F04FFD824627488B4688
:1046B0002A46334606217844FFF7A8FD2A463346AA
:1046C00001F06CFFCDE9000121482A463346042160
:1046D0007844FFF79BFD2A46334601F05FFF002236
:1046E0000D4B01F075FC02460B46DDE9000101F0BF
:1046F0002BFD4246234601F051FF52465B4601F036
:1047000067FC3A46234601F063FC02B00122BDE893
:10471000F04D02F011BE00000000F03FFB21094007
:104720000000F07F182D44540000E03F0000603C82
:10473000FB21F93FA42E0000BA2E0000075C1433C1
:1047400026A6913C1A2E0000302E00004E2D0000AF
:10475000642D00002DE9F84F04460D4621F000407D
:1047600000917349814211DC7249884201DC06D113
:104770002CB120462946BDE8F84FFFF71BBE6E4816
:10478000002DCCBF6D496E49BDE8F88F6D4981425F
:1047900011DD6D498142D8BF4FF0FF366DDD2046F7
:1047A0002946FFF7CCFA042808BFFFF715FE20467C
:1047B0002946BDE8F88F6549654F25F000458142DF
:1047C00033DD6449814219DD002632464FF08043D3
:1047D0002046294601F0FCFB80468A4601222046FD
:1047E000294602F0A9FD00223B4602F057F9424655
:1047F000534601F0A9FC04460D463EE00126002286
:10480000BA463B462046294601F0E2FB80460F4669
:10481000002253462046294602F040F942463B46D4
:1048200001F092FC04460D4627E04B4981421BDD16
:10483000DFF828A10226002253462046294601F02F
:10484000ADFE00223B4601F0C3FB80460F4600222E
:1048500053462046294602F021F942463B4601F0E4
:1048600073FC04460D4608E0032622462B46002032
:104870003B4901F069FC04460D4622462B46104692
:10488000194601F08BFE8B46824602460B4601F02C
:1048900085FE07460246334888460B460621784483
:1048A000FFF7B4FC52465B4601F078FE82462E4884
:1048B0008B463A46434605217844FFF7A7FC3A4623
:1048C000434601F06BFE02460B46002E5046594609
:1048D0000CDA01F07DFB22462B4601F05FFE01B0B1
:1048E00022462B46BDE8F04F01F0E6BF01F070FB19
:1048F00022462B4601F052FE1C4A7A4402EBC603C4
:10490000D3E9002302F0CAF822462B4602F0C6F88B
:10491000174A7A4402EBC603D3E9002301F0CCFF27
:10492000009A002AB8BF81F00041BDE8F88F00006E
:10493000000010440000F07F182D4454FB21F93F83
:10494000FB21F9BF0000DC3F0000203E0000F33FE8
:104950000000F03F0000E63F008003400000F83F09
:104960000000F0BF1E2C0000DC2B00007A2B0000A2
:10497000422B00002DE9FF5F884602F079F9404E96
:10498000404F32463B4601F009FE3F4D00222B4688
:1049900001F0DAFB01F0EAFA0446404602F068F959
:1049A00032463B4601F0FAFD00222B4601F0CCFBDB
:1049B00001F0DCFA0146204602F086F902F058F9CF
:1049C0008A46054600F068F8DFF8C09000224B46A2
:1049D00001F0E4FD06460F46204602F049F98B46F9
:1049E000044600F059F8DFF8A8800022434601F0A1
:1049F000D5FD32463B4601F0EBFA01F0B7FA064628
:104A00002846514601F0DEF900224B4601F0C6FD72
:104A100007460D462046594601F0D4F90022434688
:104A200001F0BCFD3A462B4601F0D2FA01F09EFAA5
:104A3000184D04462946029802F046F9314602F024
:104A400093FB1BD22946029802F0CAFB314602F0C2
:104A50008BFA13D22946039802F036F9214602F068
:104A600083FB0BD22946039802F0BAFB214602F0E1
:104A70007BFA03D2012004B0BDE8F09F0020FAE7E2
:104A80005C736354FB2109400080664000003240A3
:104A900000002440CDCCCC3D00B5244B21F0004299
:104AA00087B09A42DCBF0022134629DD204B9A4290
:104AB00008D140B94FF00100FBF7F1FCFFF77FFC94
:104AC00007B000BD03DBFFF775FC07B000BD02AA0D
:104AD000FFF75AF910F0030104BF0DF1080C9CE830
:104AE0000F000DD0012001290ED0022914D00DF1A4
:104AF000080C00909CE80F00FFF7DEFB07B000BD3C
:104B0000FFF706FB07B000BD0DF1080C00909CE814
:104B10000F00FFF7D1FB05E00DF1080C9CE80F003A
:104B2000FFF7F6FA07B081F0004100BDFB21E93F35
:104B30000000F07F2DE9F34F83B00020C64901F05B
:104B400091F90022C54B01F027FE7DD34FF080463E
:104B5000DFF80CB3DFF80C83049802F089F8002228
:104B6000334600F0B1FB05460C46039802F080F88E
:104B70000022334600F0A8FB2A46234601F028FA1B
:104B80000022B94B01F08AFF0022B84B01F086FFEA
:104B90000022B74B01F0D8FAFFF79EFC01F0E6F9CE
:104BA00080F0004A02F064F804460091FFF774FFB9
:104BB00000225B4601F0F2FC0022434601F008FAB5
:104BC00005460E462046009901F0FCF800225B469F
:104BD00001F0E4FC2A46334601F0B6FAFFF7BAFDCD
:104BE00006460F46DDE9031002F0DCF802F040F85B
:104BF000FFF7B0FD054632463B46019101F04EFFFE
:104C000001F0B4F9814620460099FFF745FF0022E4
:104C10005B4601F0C3FC0022434601F0D9F9064689
:104C20000F462046009901F0CDF800225B4601F0C6
:104C3000B5FC32463B4601F087FAFFF78BFD024692
:104C40000B462846019900E0CFE001F0C1F901F0E0
:104C50008DF90646484602F00BF8864FDFF81892A9
:104C60003A464B4601F09AFC01F080F90546304681
:104C700001F0FEFF3A464B4601F090FC01F076F958
:104C8000064620463A464B46009901F087FC01F063
:104C90006DF90446504601F0EBFF3A464B4601F0F1
:104CA0007DFC01F063F9DDE9032307462146284630
:104CB000FFF760FEDFF8C491DFF8C4A1DFF8C4B1EC
:104CC000012807D015F1FF4F56D36F49284601F050
:104CD000FBFF58E06A484FF0937140422A188A421D
:104CE00003D8544501DB5C4572DD304488427CD8F2
:104CF00057457ADB5F4578DC4946304602F068F973
:104D000001F0B6FF00F0CCFF0022434601F01CFA90
:104D100001F02CF95D4E49467062284602F058F9C0
:104D200001F0A6FF00F0BCFF0022434601F00CFAA0
:104D300001F01CF9F0624946384602F049F901F0E9
:104D400097FF00F0ADFF0022434601F0FDF901F0AE
:104D50000DF9B0624946204602F03AF901F088FFA9
:104D600000F09EFF0022434601F0EEF901F0FEF84C
:104D7000306305B0BDE8F08FB5F5000F05DB4249A3
:104D8000284602F02DFA054603E015F0FF4F00D14A
:104D9000002516F1FF4F04D33B49304601F094FF44
:104DA00006E0B6F5000F05DB3749304602F018FA89
:104DB000064603E016F0FF4F00D10026304840427F
:104DC0002844B0F1937F43D8544541DB5C453FDC38
:104DD0004946284602F0FCF801F04AFF00F060FF67
:104DE0000022434601F0B0F900E031E001F0BEF8E6
:104DF000264D49466862304602F0EAF801F038FF75
:104E000000F04EFF0022434601F09EF901F0AEF89B
:104E1000E8624946204602F0DBF801F029FF00F085
:104E20003FFF0022434601F08FF901F09FF8A8628E
:104E30004946384602F0CCF801F01AFF00F030FF86
:104E40000022434601F080F901F090F8286390E7D2
:104E50000E49012048638CE700807A4000003C4006
:104E600000003240000024400000594000407440DF
:104E700000807640EC1B401ADCA54C40000020412D
:104E80000000F04100001643000034430000002001
:104E90002DE9F84F0D463949DFF8E4800144B1F1BE
:104EA000937F06D8354949428D4202DB35498D4210
:104EB00004DD0121C8F83410BDE8F88F01F0D8FEF8
:104EC000314E324F32463B4601F068FBDFF8C0906E
:104ED00000224B4601F038F901F048F80446284614
:104EE00001F0C6FE32463B4601F058FB00224B461D
:104EF00001F02AF901F03AF80146204601F0E4FEFB
:104F000001F0B6FE05460091FFF7C6FDDFF884A06C
:104F10000022534601F042FB06460F46204601F0B0
:104F2000A7FE8B460446FFF7B7FDDFF86C90002222
:104F30004B4601F033FB32463B4601F049F801F0A5
:104F400015F8C8F81C0046462846009900F03AFFBC
:104F50000022534601F022FB05460F4620465946E3
:104F600000F030FF00224B4601F018FB2A463B467A
:104F700001F02EF800F0FAFF30629DE7000010BE4D
:104F800000000020000016435C736354FB210940BD
:104F900000806640000032400000244010B51446F6
:104FA00000222260114A21F000439342A8BF10BDA5
:104FB00053EA000208BF10BDB3F5801FA8BF2268E6
:104FC00007DA362202F0B8F96FF0350221F000431B
:104FD0002260DFF81CC06FF31E510CEB23531A4400
:104FE00041F0FF5141F00051226010BD0000F07F00
:104FF00002FCFFFF0EB5064A42F2107307CA8DE8A5
:1050000007000A2269460348FEF7B5FA0EBD000004
:10501000D0730008900000202DE9F047124C8EB0AC
:10502000206B01F025FE81468A46E06A01F020FEF1
:1050300007468846A06A01F01BFE05460E46606AD8
:1050400001F016FE8DE8E00702460B4607A106A810
:10505000FBF7CCF842F210731E2206A90948FEF7AE
:105060008AFA0EB0BDE8F08700000020252E3266D7
:105070003A252E32663A252E32663A252E3266239E
:10508000000000009000002070B50D4E86B0306A20
:1050900001F0EEFD04460D46F06901F0E9FD0B4616
:1050A000024608A102A8CDE90045FBF79FF842F2AD
:1050B00010730D2202A90648FEF75DFA06B070BD16
:1050C00000000020252E32663A252E32662300008D
:1050D000900000201CB506A142F21073D1E9000136
:1050E000CDE90001062269460348FEF744FA1CBDDB
:1050F0002A454E4423000000900000202DE9F04195
:1051000006460C4640F2FF75174635EA14502BD080
:1051100000221346304601F06FF925D03A4630465A
:10512000214602F009F906460C4635EA145010D023
:1051300000221346304601F05FF915D10220FBF73B
:10514000AEF9FFF749F90A46214662F31E01BDE8B0
:10515000F0810220FBF7A3F9FFF737F90A46214651
:1051600062F31E01BDE8F08130462146BDE8F081C2
:1051700086B0FDF7BBFAFEF76AFB4D4C00250395A0
:10518000A06940F00400A061A0694A4900F0040051
:1051900004900120CDE90001029069464648FDF7E0
:1051A000A7F9002201210620FDF7FEFA0620FDF7EF
:1051B000EDFA606940F0010060616069002200F072
:1051C0000100009011460C20FDF7EEFA0C20FDF7CF
:1051D000DDFAFEF723FA3A48384901604FF4E1312D
:1051E000C0E901150C21C560C0E904518561C561A4
:1051F000FEF7F6F808B172B6FEE7314800214838EC
:10520000FDF768FF2E4804214838FDF763FF00F0E2
:1052100091FD2C4C03266078B0B1012823D00228E0
:105220002BD00328F7D1A069012835D0D4E9090192
:10523000FEF764FA60690128EDD11E206561FDF773
:105240002FF9FFF747FF30E01D4914230E224831A4
:105250001B48FEF737F91A48483000780028DAD0A2
:1052600000F026FED7E7D4E90901FFF711FE606BD5
:1052700001280DD0FFF708FF08E0D4E90701FFF788
:1052800059FC606B012803D0FFF7C6FE6670C2E7C9
:105290006563FFF7AFFE08E000210846FEF72EFA2F
:1052A00060690128B7D1A56165616570B3E7000049
:1052B000001002400000211000080140004400409E
:1052C00090000020000000202DE9F04D1D460C4606
:1052D00098B0174621F0004123F00043002814BF86
:1052E0004FF0010C4FF0000C0CEB440CFE4A0CEBA1
:1052F00002064FEA620C66452BD33E0018BF01261A
:1053000006EB45061644F94A964222D3F84A53EA78
:10531000070C02D0944205D148B918B000201146BC
:10532000BDE8F08D002808BF4FF0000C01D04FF011
:10533000010C0CEB440212F5001F0AD8002F14BF19
:105340004FF0010C4FF0000C0CEB450212F5001F62
:1053500007D918B03A462B462146BDE8F04DFFF775
:105360002CB80022DFF88CA3002CB8BF534526DAF6
:10537000DFF884C36345A8BF022220DADFF870C3D8
:105380009C451CDCDFF874C30CEB235CBCF1140FF0
:1053900008DDCCF1340627FA06FC0CFA06F6BE420C
:1053A0000DD108E05FB9CCF1140623FA06FC0CFA23
:1053B00006F69E4203D10CF00102C2F1020251EA4C
:1053C000000C19D1002D17DA002C18BF022A01D0C9
:1053D000012A07D00220FBF762F818B0BDE8F04DB3
:1053E000FEF7E0BF0220FBF75AF8FEF7DBFF18B02C
:1053F00081F00041BDE8F08DB7F1000C6CD1534550
:1054000025D104F1804212F5801201BF002800204E
:10541000B74918B008BFBDE8F08DB548884207DC31
:10542000002DA1BF6046294618B0BDE8F08D07E009
:10543000281E05DA80F0004118B06046BDE8F08D06
:10544000AF497944D1E9000118B0BDE8F08DDFF82B
:10545000A0C2634525D1002D1FDA19B1514512D1E3
:10546000D8B909E0002840F0EC82A24A214618B0E1
:1054700062F31E01BDE8F08D0020214618B060F3F4
:105480001E01BDE8F08D08DA18B02346BDE8F04DE6
:1054900002460020614600F057BE18B02146BDE824
:1054A000F08D514518DAB5F1804F0DD0A5F1005CB3
:1054B000BCF1FF5C10D1B4F1000C0DDB18B06146FB
:1054C000BDE8F04D00F0CEBC234618B00246BDE862
:1054D000F04D194601F062B8060024F0004C3BD1B3
:1054E000D9B1514533D1002C06DD002DA1BF0020DC
:1054F000514618B0BDE8F08D002C01DD002D1BDBFE
:10550000002C13DA002D11DB012A4FF0000014BF2C
:1055100078497C4918B0BDE8F08D022A18BF002CEC
:105520000AD0012A08D1002C06DA0AE0002CB8BF04
:10553000002D11DA012A04D0002018B00146BDE880
:10554000F08D18B000204FF00041BDE8F08DA1F1C2
:105550004050B0F17F601AD0012000EBE47050EAB7
:10556000020421D0624C521E4FF0000B104304BFC6
:105570004FF0000B644C654883427CDD644A65480B
:1055800093421FDD884217DB002D25DB37E0002C1E
:1055900000DA4AB1022A0CBF01204FF0FF3018B0E8
:1055A000BDE8F04D00F093BF0120FAF778FF18B086
:1055B000BDE8F04DFEF703BF4D4A8A4202DC002DE4
:1055C0000ADC1CE0814202DA002D18DA04E0484BC4
:1055D000994220DD002D12DD0220FAF760FFFEF770
:1055E000F4FE05460E46002253465846214600F07A
:1055F000D5FF18B066F31E012846BDE8F08D0220E5
:10560000FAF74DFFFEF7E8FE0A46214618B062F3AE
:105610001E01BDE8F08D00223046614601F03EFAE1
:1056200080460E466FF0010201F086FE4FF05532C3
:10563000394B01F041F94246334600F0AFFF0022FA
:10564000364B01F039F98246424633460491104602
:10565000194600F0A3FF5246049B00F09FFF8A46C4
:1056600000904FF0C0422E4B4046314600F096FF6E
:105670002C4A2B4B00E027E0CDE90601514600986B
:1056800000F08CFF82460191274A284B4046314664
:1056900000F084FF5246019B01F000FA82460B465F
:1056A00002460591DDE9060100F092FCDDE90623E2
:1056B00000268846304601F0F1F95246059B01F07C
:1056C000FBF8024600F07EB90020B1F5801F07DA32
:1056D00035223046614601F02FFE06466FF0340059
:1056E00000EB215024E00000FFFF1F00FFFF0F0030
:1056F0000000F03F0000F07F0000404301FCFFFF8E
:10570000622100000000F0FF0000F0BF0000E04157
:105710000000F043FFFFEF3F5555D53F0000E03F4D
:105720004715F73FFE822B6544DF5DF80BAE543E14
:10573000A0F2FF300190C1F3130040F07F6141F00F
:1057400040510291FE498842D8BF002004DDFD4946
:105750008142C8BF012001DD0D9008E000200D90BE
:105760000198401C01900298A0F5801002900299C7
:10577000F54878440B910D9900EBC100D0E9002366
:105780000F9330460A920B9901F088F9CDE9060192
:10579000DDE90A2130460F9B00F01AFC02460B4659
:1057A0000020EA4900F0D0FC059102460B4600902B
:1057B000DDE9060100F0F2FE1490E5488A464FF05C
:1057C000000878440299006812904FF0005040EAB7
:1057D00061010D980F9B01EB804000F500210991BC
:1057E0000A9A129801F05AF932460B9B01F064F8BC
:1057F0004246534600F0D2FE0646029140465146CC
:10580000099B129A00F0CAFEDDE9062301F054F864
:105810003246029B01F042F9059B009A00F0BEFE61
:105820000091149A049053461046194600F0B6FEB3
:1058300006460246C7480B46029106217844FEF709
:10584000E5FCCDE90510029B32461046194600F0F2
:10585000A5FEDDE9053200F0A1FE0591064653469E
:1058600040461946149A00F0B3FB009B049A00F0DE
:1058700095FE3246059B00F0ABFBCDE90510424694
:1058800053461046194600F089FE0022B24B0291A1
:105890000A9000F09DFBDDE9053200F099FB0E4611
:1058A0004246AD4B404601F0F9F8029B0A9A01F0DE
:1058B000F5F8DDE9053200F0FFFF424602910A905B
:1058C00033461046514600F069FECDE906015346C5
:1058D000149A02990A9800F061FE8A4602903346B3
:1058E00042460099049800F059FE5346029A00F08F
:1058F0006FFB82460B4602460591DDE9060100F08A
:1059000067FBDDE9062300208846064601F0C6F85D
:105910005246059B00F0D0FF824609914FF060424D
:105920008E4B3046414600F039FE049006918C4A79
:105930008A4B5046099900F031FE82460291894A0D
:10594000894B3046414600F029FE5246029B00F04A
:105950003FFB864B7B440D9A03EBC203D3E9002344
:1059600000F036FB0E900791019800F0B0FD059114
:10597000DDE9061382460E9A049800F029FB7C4A62
:105980007A440D9B02EBC303D3E9002300930292F8
:1059900000F01EFB5246059B00F01AFB00268846CD
:1059A00052463046059B01F079F8009B029A01F0BF
:1059B00075F8069B049A01F071F8079B0E9A00F0A7
:1059C0007BFF024600200B4602903846294600F035
:1059D000E5FD824601912B4638461946029A01F0B0
:1059E0005DF83246434600F0D9FD5246019B00F077
:1059F000EFFA07468A46324643462946029800F0A7
:105A0000CDFD05460E463A46534600F0E1FA594AA6
:105A10008846914221DBA8EB020353EA000210D131
:105A20002A46334601F03AF8CDE90401524A534B75
:105A30003846514600F0CCFADDE9042300F0ACFE14
:105A400021D20220FAF72BFDFEF7BFFC0A462146C1
:105A500018B062F31E01BDE8F08D494B28F00042FA
:105A60009A4210D3474A08EB020353EA00027FF43C
:105A7000C6AD2A46334601F011F83A46534600F0C7
:105A80008BFE7FF6BCAD0022019228F000403E491B
:105A90003E4A01EB2051824223DA481C4FF4801128
:105AA00021FA00F040443A4AC0F30A517A44394B93
:105AB000A1F2FF31CB4020EA0303C0F3130040F40E
:105AC0008010C1F11401C84012680190B8F1000FB4
:105AD000BCBF404201902846314600F0DFFF05463A
